:10000000100400209D0400000D0500000D050000F7
:100010000D0500000D0500000D05000000000000AA
:100020000000000000000000000000000D050000BE
:100030000D050000000000000D050000D5030000C4
:100040000D0500000D0500000D0500000D05000068
:100050000D0500000D0500000D0500000D05000058
:100060000D0500000D0500000D0500000D05000048
:100070000D0500000D0500000D0500000D05000038
:100080000D0500000D0500000D0500000D05000028
:100090000D0500000D0500000D0500000D05000018
:1000A0000D0500000D0500000D0500000D05000008
:1000B0000D0500000D05000080B485B000AF78602C
:1000C0004FF6D073CEF20F031B69DBB203F03F0390
:1000D000DAB27B681A704FF6D073CEF20F039B69C9
:1000E000DBB223F00F03FB734FF6D073CEF20F0396
:1000F000DB6903F0F0034FEA1313DAB2FB7B13431F
:10010000FB737B68FA7B5A7007F11407BD4680BC0D
:10011000704700BF80B400AF00BFBD4680BC7047D1
:1001200080B483B000AF03463960FB7197F90730A4
:10013000002B10DA4FF46D43CEF20003FA7902F08F
:100140000F02A2F104013A68D2B24FEA4212D2B2CF
:100150005B181A760DE04FF46143CEF2000397F975
:1001600007103A68D2B24FEA4212D2B25B1883F853
:10017000002307F10C07BD4680BC704780B582B0F4
:1001800000AF78607A686FF07F439A4202D94FF0EF
:1001900001031FE04EF21003CEF200037A6822F052
:1001A0007F4202F1FF325A604FF0FF304FF00701FB
:1001B000FFF7B6FF4EF21003CEF200034FF000023D
:1001C0009A604EF21003CEF200034FF007021A605D
:1001D0004FF00003184607F10807BD4680BD00BF79
:1001E00080B500AF00F096F980BD00BF80B584B047
:1001F00000AF48F2FC13C0F6E0731B68FB60FB68BD
:100200004FEA1363002B1BD14AF20C03C4F20C0318
:10021000BB60BB681B6823F07002BB681A6046F2C3
:100220002003C4F20C03BB60BB681B6823F0604270
:10023000BB681A60BB681B6863F06062BB681A60C9
:10024000FB684FEA1363032B37D846F22003C4F24E
:100250000C03BB60BB681B6823F4FC52BB681A60CC
:1002600048F24003C4F20C03BB60BB684FF00002CD
:100270001A6048F24403C4F20C03BB60BB684FF041
:1002800000021A6048F25803C4F20C03BB60BB685A
:100290004FF000021A6048F26003C4F20C03BB6026
:1002A000BB684FF000021A6048F27803C4F20C03F6
:1002B000BB60BB684FF000021A603B461846FFF770
:1002C000FBFE3B78012B1BD17B78002B0AD148F237
:1002D0004003C4F20C03BB60BB681B6843F002021E
:1002E000BB681A607B78012B0AD848F24403C4F239
:1002F0000C03BB60BB681B6843F00102BB681A605B
:1003000048F2F013C0F6E0731B68FB60FA684BF626
:10031000FF13C4F68A439A4257D848F24403C4F202
:100320000C03BB60BB681B6843F49042BB681A6057
:1003300048F2B413C0F6E0731B6803F4FE434FEABF
:1003400013234FEA03637B6048F2B413C0F6E073F3
:100350001B6803F07F034FEA03437A6813437B6013
:1003600048F2B413C0F6E0731B6803F4FE437A68E6
:1003700013437B6048F2B413C0F6E0731B6803F0CC
:100380007F037A6813437B6042F23403C4F20003B4
:10039000BB60BB687A681A6044F22C03C4F20003A5
:1003A000BB6048F2C813C0F6E0731B687B60BB6893
:1003B0007A681A6048F24403C4F20C03BB60BB685D
:1003C0001B6823F49042BB681A6007F11007BD4612
:1003D00080BD00BF80B400AF40F20803C2F200034A
:1003E0001B6803F1010240F20803C2F200031A6025
:1003F000BD4680BC704700BF80B584B000AF786058
:1004000040F20803C2F200031B68FB6001E0FFF743
:1004100081FE40F20803C2F200031A68FB68D21A98
:100420007B689A42F3D307F11007BD4680BD00BF39
:1004300080B500AFFFF7DAFEFFF7D2FE40F20C0303
:10044000C2F200031A6844F6D353C1F26203A3FB5D
:1004500002134FEA93131846FFF790FE0346002B52
:1004600002D0FFF757FEFCE7FFF754FE4FF096006F
:10047000FFF7C2FFFFF74EFEFFF74CFEFFF74AFE05
:10048000FFF748FE4FF09600FFF7B6FFFFF742FE7A
:10049000FFF740FEFFF73EFEE6E700BF80B582B003
:1004A00000AF40F24463C0F200037B6040F20003FF
:1004B000C2F200033B600BE07B681A683B681A607D
:1004C0003B6803F104033B607B6803F104037B603A
:1004D0003A6840F20803C2F200039A42ECD309489A
:1004E00009494FF000028842B8BF40F8042BFFF6DC
:1004F000FAAF00F0A1F8FFF79BFF07F10807BD4630
:1005000080BD0000080000201000002080B400AF73
:10051000FEE700BF80B582B000AF00F019F8786048
:100520004FF40043C4F20C035B6803F00F037A68D6
:1005300022FA03F37B6040F20C03C2F200037A68F4
:100540001A607B68184607F10807BD4680BD00BFEA
:1005500080B483B000AF4FF40043C4F20C03DB6AF5
:1005600003F47053B3F5805F0DD0B3F5005F03D093
:10057000B3F5006F0BD011E040F20403C2F20003A8
:100580001B687B6050E04FF400437B604CE040F21E
:100590000003C2F200031B687B6045E04FF4004398
:1005A000C4F20C03DB6803F4E063B3F5007F24D0EE
:1005B000B3F5007F05D8002B2BD0B3F5807F22D078
:1005C0002DE0B3F5806F0CD0B3F5A06F03D0B3F579
:1005D000407F0CD023E04FF47C53C0F2AB137B6020
:1005E00021E046F64073C0F240137B601BE049F601
:1005F0008073C0F2D5037B6015E04DF6C003C0F2F6
:10060000A7037B600FE04CF6C073C0F26A037B6007
:1006100009E044F24023C0F20F037B6003E04FF097
:1006200000037B6000BF00BF7B68184607F10C0722
:10063000BD4680BC704700BF80B400AFBD4680BCE3
:04064000704700BF40
:080644000048E80100800000FD
:00000001FF
